:020000040800F2
:1000000000500020490C00088D0C00088D0C0008E1
:100010008D0C00088D0C00088D0C000800000000FD
:100020000000000000000000000000008D0C00082F
:100030008D0C000800000000590100087F01000835
:100040008D0C00088D0C00088D0C0008910600082E
:100050008D0C00088D0C00088D0C00088D0C00081C
:100060008D0C00088D0C00088D0C00088D0C00080C
:100070008D0C00088D0C00088D0C00088D0C0008FC
:10008000B5050008810500088D0C00088D0C0008DE
:100090008D0C00088D0C00088D0C00088D0C0008DC
:1000A0008D0C00088D0C00088D0C00088D0C0008CC
:1000B0008D0C00088D0C00088D0C00088D0C0008BC
:1000C0008D0C00088D0C00088D0C00088D0C0008AC
:1000D0008D0C00088D0C0008DD0500088D0C000853
:1000E0008D0C0008750600088D0C0008000000004B
:1000F0000000000000000000000000000000000000
:0C01000000000000000000005FF808F1A3
:10010C0010B5054C237833B9044B13B10448AFF345
:10011C0000800123237010BD680000200000000047
:10012C00E815000808B5034B1BB103490348AFF3AE
:10013C00008008BD000000006C000020E8150008DD
:10014C00590100087F0100088F01000872B62DE9E3
:10015C00F00F13480168C1F800D001B500F00CFD98
:10016C00BDE801400168D1F800D0BDE8F00F62B6DF
:10017C00704772B600B500F053FD5DF804EB62B643
:10018C00704707480268D2F800D0BDE8F00F0FBCEA
:10019C005DF804CB01B05DF804EB01B062B67047BA
:1001AC00FC3F002008B500F08DFB08BD08B50A46E1
:1001BC000146024B186800F0D3F908BD84000020FA
:1001CC0008B500F00DFA00F0ABFC0121144800F06A
:1001DC0065FC00B1FEE70221124800F05FFC00B1A3
:1001EC00FEE70221104800F059FC00B1FEE70F4C6D
:1001FC0002220521204600F073F82021204600F051
:10020C006DF80B4800F082F90A4B18600A4800F0B0
:10021C002BFB0A4800F0FEFB012000F09BFCFEE7E4
:10022C004D02000881020008B502000800080140D8
:10023C00B101000884000020B9010008790B000806
:10024C0008B5084B084A0949042000F087FB084B05
:10025C00054A0649042000F081FB032000F0A8FCAD
:10026C00F5E700BF0016000831585443314D554E88
:10027C001016000808B5084B084A0949042000F07C
:10028C006DFB084B054A0649042000F067FB07206C
:10029C0000F08EFCF5E700BF2C16000832585443D2
:1002AC00324D554E3C16000808B5084B084A094912
:1002BC00042000F053FB084B054A0649042000F0CB
:1002CC004DFB042000F074FCF5E700BF5816000845
:1002DC0033585443334D554E68160008016170472E
:1002EC0010B4224B984218D0214B98421BD0214B72
:1002FC0098421ED0204B984221D0072925D804685B
:10030C008B000F21994024EA01010160046802FA74
:10031C0003F12143016010BC7047184CA36943F0F2
:10032C000403A361E0E7154CA36943F00803A36140
:10033C00DDE7124CA36943F01003A361DAE70F4C1D
:10034C00A36943F02003A361D7E70839C9B2436816
:10035C0089004FF00F0C0CFA01FC23EA0C034360EC
:10036C00436802FA01F119434160D4E700080140E7
:10037C00000C01400010014000140140001002402C
:10038C001D4B1B68012283F82C20427B013A1B4B2E
:10039C009A5C02F1804202F5003200211160026881
:1003AC00111D427B013A9A5C02F1804202F5003247
:1003BC0091600169427B013A9A5C02F1804202F53C
:1003CC000032D160427B013A9A5C02F1804202F524
:1003DC000032C1695160427B013A9A5C02F1804261
:1003EC0002F50032136823F4FF4323F070034168D5
:1003FC000B431360704700BFB80000208416000840
:10040C00026A037B013B0549CB5C03F1804303F596
:10041C0000335B68D21A4262704700BF8416000832
:10042C0003681A6812F0100F0ED082B01B6801938B
:10043C00064B1B68002283F82C20019B03685B6829
:10044C000193019B02B07047704700BFB8000020B9
:10045C0002680023136002685360036840F21712AD
:10046C009A60036842F21C02DA600268536943F036
:10047C00C00353617047000010B5044602681D4B61
:10048C009A4222D022681C4B9A4224D022681B4BE1
:10049C009A4228D01A4B1868FFF7DAFF932363604F
:1004AC008323A360174A536943F001035361164B2E
:1004BC00C02183F81013402283F811234FF400302D
:1004CC00186083F826135A6010BD0E4A936943F4E2
:1004DC0080439361D6E70A4B1C600A4AD36943F404
:1004EC000033D361D2E7074AD36943F48023D36145
:1004FC00D0E700BF003801400044004000480040F5
:10050C00B80000200010024000E100E038B50546BC
:10051C00104C092202212046FFF7E2FE092203219A
:10052C002046FFF7DDFE0C4C0C4B23600623237397
:10053C000723637300236362E361012363762376ED
:10054C004FF4FA732362A5622046FFF795FF20460D
:10055C0038BD00BF00080140880000200044004066
:10056C0008B590F82C30002BFBD10161C261FFF76C
:10057C0007FF08BD08B5094B1B6813F0007F0CD0B2
:10058C00074B1B68002283F82C20044B4FF0E062D1
:10059C005A60044B9B6A03B1984708BD00000240A7
:1005AC00B80000208800002008B5074B1B6813F426
:1005BC00001F00D108BD044B4FF4E0025A60034BFE
:1005CC001868FFF71DFFF5E700000240B800002097
:1005DC0008B5024B1868FFF723FF08BDB8000020D0
:1005EC001E4B1A6842F001021A6059681C4A0A40F4
:1005FC005A601A6822F0847222F480321A601A68E7
:10060C0022F480221A605A6822F4FE025A604FF4D7
:10061C001F029A60134A5A60104B1B6813F0020FAA
:10062C00FAD00E4A136843F08073136002F58052BF
:10063C00136843F002031360084B1B6813F0007F30
:10064C00FAD0064A536843F002035360034B5B68CD
:10065C0003F00C03082BF9D1704700BF00100240C7
:10066C000000FFF800043800044A536943F4802367
:10067C005361034B01221A70704700BF0004014004
:10068C00BC0000201A4B5B6813F0020F1FD0194BF3
:10069C0001221A70164B5B6813F0200FFAD0144B22
:1006AC005A6842F010025A605A6822F002025A60EC
:1006BC0000229A61DA611A6201225A625A6822F0A7
:1006CC0010025A600A4B5B6813F0200FFAD0084BEB
:1006DC005B6813F0010F09D0054B5B6813F0200F1A
:1006EC00FAD0034A536823F001035360704700BFEC
:1006FC0000280040BC000020B0F800C043889C4596
:10070C0015D003441B790B704388C3EB03230949B1
:10071C000B44136042880132074B83FB02131344D2
:10072C00DB10C3EB0313D31A438000207047012066
:10073C00704700BFFC0100208988888810B572B60C
:10074C00B0F800C00CF10104114B83FB04E323440B
:10075C00DB10C3EB0313E31ADBB24488A34207D0CC
:10076C005FFA8CFC038062B66044027100230BE0DC
:10077C0062B601200BE011F803E0CCEB0C24054829
:10078C00204400F803E001339A42F4DC002010BD51
:10079C0089888888FC0100202DE9F04105460F4628
:1007AC0016461C462D4B1B683BB1984700EB800C42
:1007BC004FEA4C0CDE2C03D9FEE74FF0000CF9E7A6
:1007CC00274B44221A704C225A7053229A700120E3
:1007DC00D87035211971DFF88CE09EF8001001EB10
:1007EC0000088EF80080597100219971E4B204F16F
:1007FC001C0E83F807E01A7254225A7246229A721F
:10080C003122DA72CCF307621A73CCF307425A73B3
:10081C00CCF307229A7383F80FC02A0102431A748F
:10082C005874C7F307629A74C7F30742DA74C7F3B4
:10083C0007221A755F75C6F307629A75C6F30742ED
:10084C00DA75C6F307221A765E7698768222DA7605
:10085C00197759779C77D977BDE8F081081100207A
:10086C00C0000020BD00002008B5104B18601049D6
:10087C000F230A460220FFF78FFF202306E0A3F187
:10088C0020020C49895C0C4AD15401332E2BF6D929
:10089C00002304E0084AD15C084AD15401333B2BB5
:1008AC00F8D9074B2F221A7008BD00BF0411002085
:1008BC0043544C448C160008C0000020C00100209A
:1008CC00BE00002000B583B000238DF807300093E4
:1008DC001A4B1B68DBB19847194B1B7823B1194B8A
:1008EC001B68C31AC82B14D872B66A460DF10701DF
:1008FC001548FFF701FFC8B9144B1B68CBB162B6A2
:10090C00124B1B689DF807100098984711E00020C7
:10091C00E2E70C4B18600A4B00221A700B4B1B6859
:10092C0043B10B4A11780B48984703E00A4B01225C
:10093C001A7062B603B05DF804FB00BF081100200A
:10094C000C11002010110020F010002004110020C8
:10095C00BE000020C00100200000002008B42DE9DA
:10096C00F04185B006460F4690460BAA52F8041B80
:10097C000392234D05F1200000F0BEF984B2631CF4
:10098C009BB220330022EA54A31C9BB203F120013A
:10099C006A54424639463046FFF7FEFE04F1220205
:1009AC00D2B229461748FFF7C9FE20B172B6164BD2
:1009BC0001221A7062B600238DF80B30019372B6C7
:1009CC00124B1B78DBB2012B05D062B605B0BDE82B
:1009DC00F04101B0704701AA0DF10B010948FFF776
:1009EC008BFE0028F1D1094B00221A7062B6084B1D
:1009FC001B68002BE9D09DF80B1001989847E4E791
:100A0C00C0000020F01000200C110020000000207D
:100A1C0004110020014B1860704700BF0811002022
:100A2C00FEE7000010B44FF4FA6303FB00F202F58A
:100A3C00F261074B194400EB8000064C44F820107F
:100A4C0013444FF08072C3F8CC2710BC704700BF22
:100A5C001C110020004000200D4A13680133136064
:100A6C00002300E001330B4A12789A420FDB03EBB0
:100A7C0083029100084A0A449268002AF2D003EBE0
:100A8C008301880004490144013A8A60EAE770470F
:100A9C007C400020141100200040002038B5054691
:100AAC0072B61C4B1878042831D9012062B638BDB7
:100ABC0003F1010C184A0CEB8C0402EB840403EBDD
:100ACC00830302EB83035C6063469842F0DC124CB8
:100ADC0000EB800304EB83035C601961FFF7A2FF5A
:100AEC000C490B780D4A4FF4FA6000FB0322C2F854
:100AFC00C85703EB830204EB82020020D06003EBA7
:100B0C00830204EB8204A06001330B70CEE7002358
:100B1C00DBE700BF14110020004000201C11002056
:100B2C0008B5074800F076F8FD210648FFF7B6FF38
:100B3C00054B064A1A60064B4FF47A421A6008BD00
:100B4C00650A00082D0A0008FC3F00200040002028
:100B5C001811002008B5024B196800F035F808BDD3
:100B6C001811002008B500F04EF808BD014B1868AC
:100B7C00704700BF7C40002030B40C4B19680C4609
:100B8C000B46FF2001E099420CD05B681A69824247
:100B9C00F9D2DD68002DF6D19D68002DF3D1D0B2CD
:100BAC001C46F0E7014B1C6030BC7047FC3F00203A
:100BBC0008B572B6034B1B689860FFF7D3FF62B69B
:100BCC0008BD00BFFC3F002008B54FF0E023002219
:100BDC001A619A6101FB00F001385861D3F8202D9D
:100BEC0022F07F4242F06042C3F8202DD3F8202D32
:100BFC0022F47F0242F48032C3F8202D07221A61BE
:100C0C00FFF7BFFA08BD4FF0E0234FF08052C3F856
:100C1C00042D7047014B1860704700BF78400020CE
:100C2C0008B5054B1B6898474FF0E0234FF08052F6
:100C3C00C3F8042D08BD00BF784000200B480C49B8
:100C4C000C4A002302E0D458C4500433C4188C421C
:100C5C00F9D3094A094C002301E013600432A24283
:100C6C00FBD300F00FF8FFF7ABFA70470000002041
:100C7C0068000020D816000868000020944000206E
:100C8C00FEE7000070B500260C4D0D4C641BA41043
:100C9C00A64209D100F0A2FC00260A4D0A4C641BA6
:100CAC00A410A64205D170BD55F8043B98470136F7
:100CBC00EEE755F8043B98470136F2E7D0160008EA
:100CCC00D0160008D0160008D416000800B59BB04A
:100CDC00009104916FF00041059102910549039137
:100CEC00694600F06FF80022009B1A701BB05DF88B
:100CFC0004FB00BF0802FFFF13460A4601460248E8
:100D0C000068FFF7E3BF00BF040000202DE9F047A7
:100D1C008E6882469E420C4690461F4638D88A8979
:100D2C0012F4906F32D0256809690133A5EB0109E3
:100D3C0065694B4405EB450505EBD5756D109D427A
:100D4C0038BF1D46530531D5294600F06FFB0646CA
:100D5C0050B90C234FF0FF30CAF80030A38943F090
:100D6C004003A381BDE8F0874A46216900F0CEFA22
:100D7C00A38923F4906343F08003A38126614E443E
:100D8C0026603E466561A5EB0905A560BE4200D90B
:100D9C003E4632464146206800F0C6FAA368002061
:100DAC009B1BA360236833442360DBE72A4600F0D7
:100DBC00B1FB06460028E1D15046216900F0CEFA7D
:100DCC00C7E700002DE9F04F98468B8907461B06B4
:100DDC000D4614469DB00ED50B6963B9402100F049
:100DEC0025FB2860286120B90C233B604FF0FF30B5
:100DFC00D1E040236B610023099320238DF8293027
:100E0C0030234FF00109CDF80C80DFF8A4818DF868
:100E1C002A3023469A4613F8012B0AB1252AF9D118
:100E2C00BAEB040B0BD05B46224629463846FFF73B
:100E3C006DFF013000F0AA80099A5A4409929AF881
:100E4C000030002B00F0A28000234FF0FF32CDE9E0
:100E5C0005230AF1010A049307938DF853301A9372
:100E6C005446052214F8011B514800F041FA049A2B
:100E7C00D8B9D00644BF20238DF85330110744BF96
:100E8C002B238DF853309AF800302A2B15D054466A
:100E9C0000204FF00A0C079A214611F8013B303B19
:100EAC00092B4ED9B0B1079214E0A0EB080309FA54
:100EBC0003F31343A2460493D2E7039B191D1B684B
:100ECC000391002BBBBF5B4242F0020207930793D6
:100EDC00B8BF049223782E2B0CD163782A2B35D1F2
:100EEC00039B02341A1D1B680392002BB8BF4FF0F2
:100EFC00FF330593DFF8BCA003225046217800F0A5
:100F0C00F7F940B14023A0EB0A0003FA00F0049B70
:100F1C0001340343049314F8011B062226488DF870
:100F2C00281000F0E5F9002838D0244B1BBB039B9C
:100F3C00073323F0070308330393099B33440993C6
:100F4C0067E70C4601200CFB0232A5E700234FF0AB
:100F5C000A0C194601340593204610F8012B303A3F
:100F6C00092A03D9002BC5D00591C3E704460123F8
:100F7C000CFB0121F0E703AB00932A463846104BDB
:100F8C0004A9AFF30080421C0646D6D1AB895B06A0
:100F9C003FF52CAF09981DB0BDE8F08F03AB009363
:100FAC002A463846064B04A900F07CF8EBE700BF54
:100FBC009B160008A1160008A516000800000000EA
:100FCC00190D00082DE9F047164699468A680B69F9
:100FDC0007469342B8BF1346336091F843200C4642
:100FEC00DDF820800AB1013333602368990642BFD3
:100FFC00336802333360256815F0060506D104F119
:10100C00190AE36832689B1AAB4228DC94F8432037
:10101C00131E226818BF012392062DD44946384668
:10102C0004F14302C047013020D02368E56803F087
:10103C000603042B18BF002532684FF00006A36886
:10104C0008BFAD1A226908BF25EAE5759342C4BFF3
:10105C009B1AED181A34B5421AD1002008E001236E
:10106C00524649463846C047013003D14FF0FF3055
:10107C00BDE8F0870135C4E73020E11881F8430062
:10108C005A1C94F845102244023382F84310C5E7E9
:10109C000123224649463846C0470130E6D0013686
:1010AC00D9E700002DE9FF470F7E9146782F804647
:1010BC000C469A460C9D01F1430207D8622F0AD8C0
:1010CC00002F00F0D980582F00F0A48004F14205C5
:1010DC0084F842703AE0A7F16303152BF6D801A10E
:1010EC0051F823F0491100085D110008D9100008CF
:1010FC00D9100008D9100008D91000085D1100089B
:10110C00D9100008D9100008D9100008D91000080F
:10111C006B1200088D1100084D120008D910000840
:10112C00D91000088D120008D91000088D11000884
:10113C00D9100008D9100008551200082B681A1D88
:10114C001B682A6004F1420584F842300123A4E0B4
:10115C0020682968060601F104030AD50E682B6085
:10116C00002E03DA2D23764284F843300A235E489E
:10117C0019E00E6810F0400F2B6018BF36B2EFE785
:10118C002B682068191D2960010601D51E6802E034
:10119C004606FBD51E886F2F0CBF08230A23524826
:1011AC00002184F843106568002DA8BF2168A56054
:1011BC00A4BF21F0040121600EB9002D4DD01546BD
:1011CC00B6FBF3F103FB1167C75D05F8017D3746EC
:1011DC00BB420E46F4D9082B0BD12368DE0708D589
:1011EC00236961689942DEBF302305F8013C05F1A3
:1011FC00FF35521B22614B4621464046CDF800A0DC
:10120C0003AAFFF7DFFE01304CD14FF0FF3004B0E2
:10121C00BDE8F087344881F845702968236851F897
:10122C00046B29601D0614D5DF0744BF43F020036F
:10123C0023601EB9236823F0200323601023AFE73B
:10124C00236843F0200323607823284884F8453032
:10125C00E3E7590648BFB6B2E6E71546BBE72B688D
:10126C002668181D6169286035061B6801D5196050
:10127C0002E07006FBD51980002315462361BAE7FE
:10128C002B6800211A1D2A601D686268284600F030
:10129C002FF808B1401B606063682361002384F859
:1012AC004330A8E72A46494640462369D0470130D7
:1012BC00ABD023689B0713D4E068039B9842B8BF5C
:1012CC001846A4E70123324649464046D047013030
:1012DC009BD00135E36803995B1AAB42F2DCEBE778
:1012EC00002504F11906F5E7AC160008BD16000838
:1012FC00034610B5C9B202449342184601D10020EE
:10130C0003E0047801338C42F6D110BD0A449142BB
:10131C0000F1FF3300D1704710B511F8014B914229
:10132C0003F8014FF9D110BD884210B501EB02044E
:10133C0002D98442234607D8431EA14208D011F893
:10134C00012B03F8012FF8E7014602448A4200D131
:10135C0010BD13F8014D02F8014DF7E738B50546FD
:10136C00002940D051F8043C0C1F002BB8BFE418E6
:10137C0000F010F91C4A136833B9636014602846F6
:10138C00BDE8384000F00CB9A34208D920682118F8
:10139C008B4201BF19685B6809182160EDE71A469A
:1013AC005B680BB1A342FAD911685018A0420BD15B
:1013BC0020680144501883421160E0D118685B68C2
:1013CC00014411605360DAE702D90C232B60D6E795
:1013DC00206821188B4201BF19685B6809182160CD
:1013EC0063605460CBE738BD8040002070B50E4E72
:1013FC000C463168054611B900F0BCF83060214646
:10140C00284600F0B7F8431C0AD0C41C24F003048F
:10141C00A04207D0211A284600F0ACF8013001D1C7
:10142C004FF0FF34204670BD844000202DE9F04180
:10143C00CD1C25F0030508350C2D38BF0C25002DCF
:10144C00074601DBA94205D90C2300263B60304638
:10145C00BDE8F0812E4E00F09DF833681C4634BB7D
:10146C0029463846FFF7C2FF431C04464DD1346869
:10147C002646002E40D123683146384604EB03083B
:10148C0000F078F880453AD1216803356D1A25F0C3
:10149C00030508350C2D38BF0C2538462946FFF7B7
:1014AC00A5FF01302BD023682B4423600EE022686B
:1014BC00521B1ED40B2A16D96119A342256018BFE2
:1014CC005960636808BF316062514B60384604F163
:1014DC000B0600F065F826F00706231DF21AB6D0AD
:1014EC009B1BA350B3E76268A3420CBF32605A60E7
:1014FC00ECE723466468B2E734467668B9E70C2318
:10150C0038463B6000F04CF8A1E72560DEE700BFF1
:10151C00804000202DE9F041804614460E4621B94A
:10152C001146BDE8F041FFF781BF2AB9FFF716FF5E
:10153C0025462846BDE8F08100F038F8844207467D
:10154C0002D8B4EB500F12D821464046FFF76EFF7D
:10155C0005460028EDD0BC422246314628BF3A460B
:10156C00FFF7D4FE31464046FFF7F8FEE1E735467B
:10157C00DFE7000038B50023054D044608462B6014
:10158C0000F01EF8431C02D12B6803B1236038BD58
:10159C0088400020014800F011B800BF8C400020AA
:1015AC00014800F00CB800BF8C40002051F8043CFE
:1015BC00181F002BBCBF0B58C018704770477047E2
:1015CC00044A05491368002B08BF0B4618441060E9
:1015DC00184670479040002098400020F8B500BF96
:1015EC00F8BC08BC9E467047F8B500BFF8BC08BCF8
:0415FC009E46704750
:10160000436F6E74657831205374617274212000C9
:1016100048656C6C6F204D65737361676520467219
:101620006F6D20436F6E746578310000436F6E7488
:1016300065783220537461727421200048656C6CA7
:101640006F204D6573736167652046726F6D20432F
:101650006F6E746578320000436F6E746578332066
:10166000537461727421200048656C6C6F204D6565
:1016700073736167652046726F6D20436F6E74658A
:1016800078330000081C3044586C80004C4F4720D1
:1016900044524F5050454421212100232D302B200E
:1016A00000686C4C00656667454647003031323350
:1016B00034353637383941424344454600303132BB
:1016C000333435363738396162636465660000004B
:0416D00031010008DC
:0416D4000D010008FC
:1016D80001000000080000200000000000000000D9
:1016E80000000000000000000000000000000000F2
:1016F80000000000000000000000000000000000E2
:1017080000000000000000000000000000000000D1
:1017180000000000000000000000000000000000C1
:1017280000000000000000000000000000000000B1
:081738000000000000000000A9
:0400000508000C499A
:00000001FF
