:020000040800F2
:1000000000500020210C0008650C0008650C000859
:10001000650C0008650C0008650C00080000000075
:10002000000000000000000000000000650C000857
:10003000650C000800000000650C0008810700083E
:10004000650C0008650C0008650C000891080008A4
:10005000650C0008650C0008650C0008650C0008BC
:10006000650C0008650C0008650C0008650C0008AC
:10007000650C0008650C0008650C0008650C00089C
:100080003D06000809060008650C0008650C00081C
:10009000650C0008650C0008650C0008650C00087C
:1000A000650C0008C9070008650C0008650C00080D
:1000B000650C0008650C0008650C0008650C00085C
:1000C000650C0008650C0008650C0008650C00084C
:1000D000650C0008650C000865060008650C000842
:1000E000650C000875080008650C00080000000099
:1000F0000000000000000000000000000000000000
:0C01000000000000000000005FF808F1A3
:10010C0010B5054C237833B9044B13B10448AFF345
:10011C0000800123237010BD680000200000000047
:10012C00C015000808B5034B1BB103490348AFF3D6
:10013C00008008BD000000006C000020C015000805
:10014C0008B500F0C3FC08BD08B50A460146024BD1
:10015C00186800F049FA08BD84000020F0B585B09D
:10016C00002000F0B5FA00F07FFA5F4C0222052166
:10017C00204600F0F9F82021204600F0F2F85B4808
:10018C0000F008FA5A4B18605A4800F071FC5A48B3
:10019C0000F03AFD594D04F1656404F5882404F22D
:1001AC003154574B2A462146042000F0D5FC554BC0
:1001BC000193554B0093554B2A462146042000F0E1
:1001CC00CBFC0024312C0ADC514B4C4A5149052004
:1001DC0000F0C2FC052000F0E3FA0134F2E76420E1
:1001EC0000F0DEFA002726E0444D4A4C0526009626
:1001FC00494B2A462146042000F0AEFC0096474BA2
:10020C002A462146042000F0A7FC0096444B2A46BF
:10021C002146042000F0A0FC0096424B2A462146C1
:10022C00042000F099FC00963F4B2A4621460420FE
:10023C0000F092FC0137132FD6DD304D354C0526DE
:10024C0000963A4B2A462146042000F085FC009685
:10025C00374B2A462146012000F07EFC642000F03A
:10026C009FFA264D2B4C274B0193274B0093274B82
:10027C002A462146042000F06FFC3823019340F6F7
:10028C00052300932B4B2A462146022000F064FCE8
:10029C00294E029652230193284B0093284B2A4651
:1002AC002146012000F058FC0096264B2A46214698
:1002BC00052000F051FC244B2A462146042000F076
:1002CC004BFC4FF47A7000F06BFA204B2A46214617
:1002DC00032000F041FC4FF47A7000F061FA202109
:1002EC00014800F035F8BCE7000801404D0100085A
:1002FC008400002055010008A10700084E49414D1B
:10030C00D81500080C16000818160008EC15000883
:10031C0024160008314D554E401600085C16000896
:10032C007816000890160008AC160008C8160008CD
:10033C00DC160008F0160008A4170008481700087F
:10034C001417000850170008741700088C170008C1
:10035C00C36801EA030221EA030141EA0241016197
:10036C00704701617047000010B4224B984218D0BE
:10037C00214B98421BD0214B98421ED0204B9842C7
:10038C0021D0072925D804688B000F21994024EA35
:10039C0001010160046802FA03F12143016010BC01
:1003AC007047184CA36943F00403A361E0E7154CB4
:1003BC00A36943F00803A361DDE7124CA36943F082
:1003CC001003A361DAE70F4CA36943F02003A36188
:1003DC00D7E70839C9B2436889004FF00F0C0CFA03
:1003EC0001FC23EA0C034360436802FA01F1194350
:1003FC004160D4E700080140000C014000100140AE
:10040C0000140140001002401D4B1B68012283F8B0
:10041C002C20427B013A1B4B9A5C02F1804202F584
:10042C000032002111600268111D427B013A9A5C76
:10043C0002F1804202F5003291600169427B013A7F
:10044C009A5C02F1804202F50032D160427B013AA3
:10045C009A5C02F1804202F50032C1695160427B24
:10046C00013A9A5C02F1804202F50032136823F4DF
:10047C00FF4323F0700341680B431360704700BFC8
:10048C00B8000020AC170008026A037B013B054949
:10049C00CB5C03F1804303F500335B68D21A4262F4
:1004AC00704700BFAC17000803681A6812F0100FF1
:1004BC000ED082B01B680193064B1B68002283F898
:1004CC002C20019B03685B680193019B02B0704771
:1004DC00704700BFB8000020026800231360026858
:1004EC005360036840F217129A60036842F21C02D0
:1004FC00DA600268536943F0C0035361704700002F
:10050C0010B5044602681D4B9A4222D022681C4B3F
:10051C009A4224D022681B4B9A4228D01A4B186856
:10052C00FFF7DAFF932363608323A360174A5369B1
:10053C0043F001035361164BC02183F81013402282
:10054C0083F811234FF40030186083F826135A6097
:10055C0010BD0E4A936943F480439361D6E70A4B6E
:10056C001C600A4AD36943F40033D361D2E7074ACB
:10057C00D36943F48023D361D0E700BF0038014036
:10058C000044004000480040B80000200010024029
:10059C0000E100E038B50546104C09220221204646
:1005AC00FFF7E2FE092203212046FFF7DDFE0C4C8B
:1005BC000C4B2360062323730723637300236362AE
:1005CC00E3610123637623764FF4FA732362A56209
:1005DC002046FFF795FF204638BD00BF00080140BC
:1005EC00880000200044004008B590F82C30002B07
:1005FC00FBD10161C261FFF707FF08BD08B5094BCC
:10060C001B6813F0007F0CD0074B1B68002283F88B
:10061C002C20044B4FF0E0625A60044B9B6A03B1F0
:10062C00984708BD00000240B80000208800002058
:10063C0008B5074B1B6813F4001F00D108BD044B11
:10064C004FF4E0025A60034B1868FFF71DFFF5E703
:10065C0000000240B800002008B5024B1868FFF7F4
:10066C0023FF08BDB80000204FF0E02341F63F7295
:10067C005A610749F02281F8232000209861072253
:10068C001A611A6922F004021A6181F8230070477A
:10069C0000ED00E00C4BDA6942F0C052DA610B4914
:1006AC000A6842F480720A605A6A42F001025A6285
:1006BC00054B5B6A13F0020FFAD0034A136A43F43A
:1006CC0002431362704700BF0010024000700040EC
:1006DC0010B50446254AD36823F4E0631B041B0CB5
:1006EC0043F0052343F47A03D36000F079F8FFF765
:1006FC00D1FF1F4B5B6813F0020F04D01C4A136828
:10070C0043F00803136074B9194B1A6822F0010204
:10071C001A601A6822F002021A60144A136923F054
:10072C000403136110BD012C10D0022CFAD1104B14
:10073C001A6842F001021A601A6842F002021A604A
:10074C000A4A136943F004031361EBE7084B1A6878
:10075C0042F001021A601A6822F002021A60034A7F
:10076C00136943F004031361DCE700BF00ED00E004
:10077C000070004008B5054A136801331360044B40
:10078C001B680BB11068984708BD00BFC40000205F
:10079C00C0000020014B1868704700BFC400002047
:1007AC0082B0054B1B680193034B1B68019A9B1A83
:1007BC008342F9D302B07047C4000020064B1B697A
:1007CC0013F0010F07D0044B6FF001021A61034ABA
:1007DC001368013313607047002C0140BC000020EB
:1007EC001E4B1A6842F001021A6059681C4A0A40F2
:1007FC005A601A6822F0847222F480321A601A68E5
:10080C0022F480221A605A6822F4FE025A604FF4D5
:10081C001F029A60134A5A60104B1B6813F0020FA8
:10082C00FAD00E4A136843F08073136002F58052BD
:10083C00136843F002031360084B1B6813F0007F2E
:10084C00FAD0064A536843F002035360034B5B68CB
:10085C0003F00C03082BF9D1704700BF00100240C5
:10086C000000FFF800043800044A536943F4802365
:10087C005361034B01221A70704700BF0004014002
:10088C00C80000201A4B5B6813F0020F1FD0194BE5
:10089C0001221A70164B5B6813F0200FFAD0144B20
:1008AC005A6842F010025A605A6822F002025A60EA
:1008BC0000229A61DA611A6201225A625A6822F0A5
:1008CC0010025A600A4B5B6813F0200FFAD0084BE9
:1008DC005B6813F0010F09D0054B5B6813F0200F18
:1008EC00FAD0034A536823F001035360704700BFEA
:1008FC0000280040C8000020B0F800C043889C4588
:10090C0015D003441B790B704388C3EB03230949AF
:10091C000B44136042880132074B83FB02131344D0
:10092C00DB10C3EB0313D31A438000207047012064
:10093C00704700BF080200208988888810B5B0F87D
:10094C0000C00CF10104114B83FB04E32344DB10C6
:10095C00C3EB0313E31ADBB24488A34213D05FFA50
:10096C008CFC038060440271002308E011F803E062
:10097C00CCEB0C240648204400F803E001339A42E7
:10098C00F4DC002010BD0120FCE700BF89888888BA
:10099C00080200202DE9F04105460F4616461C467C
:1009AC00304B1B683BB1984700EB800C4FEA4C0C6A
:1009BC00DE2C03D9FEE74FF0000CF9E72A4B44225A
:1009CC001A704C215970532199700120D87035211F
:1009DC001971DFF898E09EF8001001EB00088EF812
:1009EC000080597100219971E4B204F11C0E83F856
:1009FC0007E04FF0750E83F808E04FF0430E83F8D4
:100A0C0009E04FF0490E83F80AE0DA72CCF3076282
:100A1C001A73CCF307425A73CCF307229A7383F8F8
:100A2C000FC02A0102431A745874C7F307629A74F0
:100A3C00C7F30742DA74C7F307221A755F75C6F35A
:100A4C0007629A75C6F30742DA75C6F307221A765F
:100A5C005E7698768222DA76197759779C77D977F1
:100A6C00BDE8F08114110020CC000020C90000204A
:100A7C0008B5104B186010490F230A460220FFF7E7
:100A8C0089FF202306E0A3F120020C49895C0C4A63
:100A9C00D15401332E2BF6D9002304E0084AD15C43
:100AAC00084AD15401333B2BF8D9074B2F221A702B
:100ABC0008BD00BF1011002043544C44B41700086B
:100ACC00CC000020CC010020CA00002000B583B06F
:100ADC0000238DF807300093174B1B68BBB1984768
:100AEC00164B1B7823B1164B1B68C31AC82B10D896
:100AFC006A460DF107011348FFF7FEFEB0B9124B21
:100B0C001B68B3B19DF807100098984711E00020BE
:100B1C00E6E70B4B1860094B00221A700A4B1B6856
:100B2C003BB10A4A11780A48984702E0094B012266
:100B3C001A7003B05DF804FB14110020181100208A
:100B4C001C110020FC10002010110020CA000020F5
:100B5C00CC0100200000002008B42DE9F04185B044
:100B6C0006460F4690460BAA52F8041B0392214DE1
:100B7C0005F1200000F0ACF884B2631C9BB220336A
:100B8C000022EA54A31C9BB203F120016A54424692
:100B9C0039463046FFF7FEFE04F12202D2B2294656
:100BAC001548FFF7CBFE10B1144B01221A7000232D
:100BBC008DF80B300193124B1B78DBB2012B04D058
:100BCC0005B0BDE8F04101B0704701AA0DF10B0171
:100BDC000948FFF791FE0028F2D1094B00221A7048
:100BEC00084B1B68002BEBD09DF80B100198984715
:100BFC00E6E700BFCC000020FC10002018110020FC
:100C0C000000002010110020014B1860704700BF3D
:100C1C00141100200B480C490C4A002302E0D45854
:100C2C00C4500433C4188C42F9D3094A094C00232C
:100C3C0001E013600432A242FBD300F00FF8FFF77F
:100C4C008DFA704700000020680000200018000892
:100C5C006800002034110020FEE7000070B500266B
:100C6C000C4D0D4C641BA410A64209D100F0A2FC43
:100C7C0000260A4D0A4C641BA410A64205D170BD77
:100C8C0055F8043B98470136EEE755F8043B984776
:100C9C000136F2E7F8170008F8170008F8170008F3
:100CAC00FC17000800B59BB0009104916FF0004157
:100CBC000591029105490391694600F06FF80022F5
:100CCC00009B1A701BB05DF804FB00BF0802FFFF0D
:100CDC0013460A46014602480068FFF7E3BF00BF0F
:100CEC00040000202DE9F0478E6882469E420C4697
:100CFC0090461F4638D88A8912F4906F32D02568F6
:100D0C0009690133A5EB010965694B4405EB450500
:100D1C0005EBD5756D109D4238BF1D46530531D579
:100D2C00294600F06FFB064650B90C234FF0FF30FC
:100D3C00CAF80030A38943F04003A381BDE8F087D3
:100D4C004A46216900F0CEFAA38923F4906343F05C
:100D5C008003A38126614E4426603E466561A5EB67
:100D6C000905A560BE4200D93E4632464146206880
:100D7C0000F0C6FAA36800209B1BA36023683344D1
:100D8C002360DBE72A4600F0B1FB06460028E1D1E0
:100D9C005046216900F0CEFAC7E700002DE9F04F6C
:100DAC0098468B8907461B060D4614469DB00ED5FA
:100DBC000B6963B9402100F025FB2860286120B93C
:100DCC000C233B604FF0FF30D1E040236B610023DC
:100DDC00099320238DF8293030234FF00109CDF8E9
:100DEC000C80DFF8A4818DF82A3023469A4613F83C
:100DFC00012B0AB1252AF9D1BAEB040B0BD05B46B7
:100E0C00224629463846FFF76DFF013000F0AA80D4
:100E1C00099A5A4409929AF80030002B00F0A280EB
:100E2C0000234FF0FF32CDE905230AF1010A0493A8
:100E3C0007938DF853301A935446052214F8011B6E
:100E4C00514800F041FA049AD8B9D00644BF202387
:100E5C008DF85330110744BF2B238DF853309AF87B
:100E6C0000302A2B15D0544600204FF00A0C079A5C
:100E7C00214611F8013B303B092B4ED9B0B10792FA
:100E8C0014E0A0EB080309FA03F31343A2460493FE
:100E9C00D2E7039B191D1B680391002BBBBF5B4260
:100EAC0042F0020207930793B8BF049223782E2BCB
:100EBC000CD163782A2B35D1039B02341A1D1B6885
:100ECC000392002BB8BF4FF0FF330593DFF8BCA0A3
:100EDC0003225046217800F0F7F940B14023A0EBF3
:100EEC000A0003FA00F0049B01340343049314F842
:100EFC00011B062226488DF8281000F0E5F9002881
:100F0C0038D0244B1BBB039B073323F00703083358
:100F1C000393099B3344099367E70C4601200CFBB0
:100F2C000232A5E700234FF00A0C19460134059351
:100F3C00204610F8012B303A092A03D9002BC5D0D2
:100F4C000591C3E7044601230CFB0121F0E703AB39
:100F5C0000932A463846104B04A9AFF30080421C7C
:100F6C000646D6D1AB895B063FF52CAF09981DB070
:100F7C00BDE8F08F03AB00932A463846064B04A914
:100F8C0000F07CF8EBE700BFC3170008C917000896
:100F9C00CD17000800000000F10C00082DE9F04707
:100FAC00164699468A680B6907469342B8BF1346A2
:100FBC00336091F843200C46DDF820800AB10133F0
:100FCC0033602368990642BF336802333360256867
:100FDC0015F0060506D104F1190AE36832689B1A6C
:100FEC00AB4228DC94F84320131E226818BF01235F
:100FFC0092062DD44946384604F14302C0470130CD
:10100C0020D02368E56803F00603042B18BF0025E5
:10101C0032684FF00006A36808BFAD1A226908BFFA
:10102C0025EAE5759342C4BF9B1AED181A34B542F4
:10103C001AD1002008E00123524649463846C047E1
:10104C00013003D14FF0FF30BDE8F0870135C4E724
:10105C003020E11881F843005A1C94F845102244C2
:10106C00023382F84310C5E701232246494638462D
:10107C00C0470130E6D00136D9E700002DE9FF4723
:10108C000F7E9146782F80460C469A460C9D01F1B6
:10109C00430207D8622F0AD8002F00F0D980582FAE
:1010AC0000F0A48004F1420584F842703AE0A7F104
:1010BC006303152BF6D801A151F823F02111000878
:1010CC0035110008B1100008B1100008B11000086B
:1010DC00B110000835110008B1100008B11000085B
:1010EC00B1100008B1100008431200086511000887
:1010FC0025120008B1100008B11000086512000894
:10110C00B110000865110008B1100008B1100008FA
:10111C002D1200082B681A1D1B682A6004F1420569
:10112C0084F842300123A4E020682968060601F106
:10113C0004030AD50E682B60002E03DA2D237642A9
:10114C0084F843300A235E4819E00E6810F0400F13
:10115C002B6018BF36B2EFE72B682068191D296089
:10116C00010601D51E6802E04606FBD51E886F2FCE
:10117C000CBF08230A235248002184F843106568E9
:10118C00002DA8BF2168A560A4BF21F00401216037
:10119C000EB9002D4DD01546B6FBF3F103FB1167CC
:1011AC00C75D05F8017D3746BB420E46F4D9082BC6
:1011BC000BD12368DE0708D5236961689942DEBF2D
:1011CC00302305F8013C05F1FF35521B22614B46DB
:1011DC0021464046CDF800A003AAFFF7DFFE013000
:1011EC004CD14FF0FF3004B0BDE8F087344881F8A3
:1011FC0045702968236851F8046B29601D0614D5C5
:10120C00DF0744BF43F0200323601EB9236823F09B
:10121C00200323601023AFE7236843F020032360EF
:10122C007823284884F84530E3E7590648BFB6B21E
:10123C00E6E71546BBE72B682668181D6169286030
:10124C0035061B6801D5196002E07006FBD51980C4
:10125C00002315462361BAE72B6800211A1D2A606A
:10126C001D686268284600F02FF808B1401B6060CA
:10127C0063682361002384F84330A8E72A46494673
:10128C0040462369D0470130ABD023689B0713D469
:10129C00E068039B9842B8BF1846A4E70123324686
:1012AC0049464046D04701309BD00135E36803994D
:1012BC005B1AAB42F2DCEBE7002504F11906F5E70B
:1012CC00D4170008E5170008034610B5C9B202444C
:1012DC009342184601D1002003E0047801338C427C
:1012EC00F6D110BD0A44914200F1FF3300D1704792
:1012FC0010B511F8014B914203F8014FF9D110BD13
:10130C00884210B501EB020402D98442234607D867
:10131C00431EA14208D011F8012B03F8012FF8E766
:10132C00014602448A4200D110BD13F8014D02F867
:10133C00014DF7E738B50546002940D051F8043C7B
:10134C000C1F002BB8BFE41800F010F91C4A1368EE
:10135C0033B9636014602846BDE8384000F00CB91E
:10136C00A34208D9206821188B4201BF19685B6819
:10137C0009182160EDE71A465B680BB1A342FAD954
:10138C0011685018A0420BD12068014450188342B8
:10139C001160E0D118685B68014411605360DAE7B2
:1013AC0002D90C232B60D6E7206821188B4201BF91
:1013BC0019685B680918216063605460CBE738BD1D
:1013CC002011002070B50E4E0C463168054611B93F
:1013DC0000F0BCF830602146284600F0B7F8431CFA
:1013EC000AD0C41C24F00304A04207D0211A2846BA
:1013FC0000F0ACF8013001D14FF0FF34204670BD45
:10140C00241100202DE9F041CD1C25F003050835F1
:10141C000C2D38BF0C25002D074601DBA94205D940
:10142C000C2300263B603046BDE8F0812E4E00F0C8
:10143C009DF833681C4634BB29463846FFF7C2FF7B
:10144C00431C04464DD134682646002E40D12368F7
:10145C003146384604EB030800F078F880453AD161
:10146C00216803356D1A25F0030508350C2D38BF9E
:10147C000C2538462946FFF7A5FF01302BD02368F1
:10148C002B4423600EE02268521B1ED40B2A16D963
:10149C006119A342256018BF5960636808BF3160A9
:1014AC0062514B60384604F10B0600F065F826F0EB
:1014BC000706231DF21AB6D09B1BA350B3E7626834
:1014CC00A3420CBF32605A60ECE723466468B2E773
:1014DC0034467668B9E70C2338463B6000F04CF88C
:1014EC00A1E72560DEE700BF201100202DE9F041C7
:1014FC00804614460E4621B91146BDE8F041FFF76F
:10150C0081BF2AB9FFF716FF25462846BDE8F081B2
:10151C0000F038F88442074602D8B4EB500F12D8CA
:10152C0021464046FFF76EFF05460028EDD0BC4231
:10153C002246314628BF3A46FFF7D4FE3146404694
:10154C00FFF7F8FEE1E73546DFE7000038B500238A
:10155C00054D044608462B6000F01EF8431C02D1D2
:10156C002B6803B1236038BD28110020014800F01E
:10157C0011B800BF2C110020014800F00CB800BFBE
:10158C002C11002051F8043C181F002BBCBF0B5829
:10159C00C018704770477047044A05491368002B00
:1015AC0008BF0B46184410601846704730110020D5
:1015BC0038110020F8B500BFF8BC08BC9E46704737
:0C15CC00F8B500BFF8BC08BC9E46704794
:1015D800444C54205445535453205354415254219D
:1015E80021210000436F6D70696C6174696F6E2012
:1015F800646174653A2025732074696D653A202505
:101608007300000030303A31353A333000000000C2
:1016180046656220313120323032330048656C6CC7
:101628006F20444C54207769746820706572696F24
:101638006420356D730000004C6F672044726F7032
:101648002074657374696E6730203A2920202564F8
:10165800000000004C6F672044726F70207465733F
:1016680074696E6731203A29202025640000000043
:101678004C6F672044726F702074657374696E676D
:10168800323A2920202564004C6F672044726F701D
:101698002074657374696E6733203A2920202564A5
:1016A800000000004C6F672044726F7020746573EF
:1016B80074696E6734203A292020256400000000F0
:1016C80044726F70706564206C6F672E2E2E202018
:1016D8002564000044726F70706564206C6F672E1B
:1016E8002E2E20202025640048656C6C6F20444C09
:1016F8005420416761696E2041726731202564205A
:1017080041726732203A25640000000046494C4582
:101718003A2573204C494E453A2025642046554EBB
:101728003A2573204C4F473A2047454E4552414C85
:101738004C5920444C5420416761696E31000000C7
:101748006D61696E2E63000046554E3A2573204C34
:101758004F473A20416E6F74686572546573742000
:10176800444C5420416761696E000000416E6F74FB
:10177800686572546573743220444C542041676123
:10178800696E00004F72616E676520697320737718
:101798006565742066727569740000004D61696E34
:1017A80000000000081C3044586C80004C4F472053
:1017B80044524F5050454421212100232D302B20E5
:1017C80000686C4C00656667454647003031323327
:1017D8003435363738394142434445460030313292
:1017E8003334353637383961626364656600000022
:0417F80031010008B3
:0417FC000D010008D3
:1018000001000000080000200000000000000000AF
:1018100000000000000000000000000000000000C8
:1018200000000000000000000000000000000000B8
:1018300000000000000000000000000000000000A8
:101840000000000000000000000000000000000098
:101850000000000000000000000000000000000088
:08186000000000000000000080
:0400000508000C21C2
:00000001FF
