:020000040800F2
:10000000005000202D0B0008710B0008710B000838
:10001000710B0008710B0008710B00080000000054
:10002000000000000000000000000000710B00084C
:10003000710B000800000000710B0008ED050008BE
:10004000710B0008710B0008710B000875060008A1
:10005000710B0008710B0008710B0008710B000890
:10006000710B0008710B0008710B0008710B000880
:10007000710B0008710B0008710B0008710B000870
:10008000A904000875040008710B0008710B000832
:10009000710B0008710B0008710B0008710B000850
:1000A000710B000835060008710B0008710B000881
:1000B000710B0008710B0008710B0008710B000830
:1000C000710B0008710B0008710B0008710B000820
:1000D000710B0008710B0008D1040008710B0008B7
:1000E000710B000859060008710B000800000000A1
:1000F0000000000000000000000000000000000000
:0C01000000000000000000005FF808F1A3
:10010C0010B5054C237833B9044B13B10448AFF345
:10011C0000800123237010BD6C0000200000000043
:10012C00CC14000808B5034B1BB103490348AFF3CB
:10013C00008008BD0000000070000020CC140008F6
:10014C001E4B1A6842F001021A6059681C4A0A4098
:10015C005A601A6822F0847222F480321A601A688B
:10016C0022F480221A605A6822F4FE025A604FF47C
:10017C001F029A60134A5A60104B1B6813F0020F4F
:10018C00FAD00E4A136843F08073136002F5805264
:10019C00136843F002031360084B1B6813F0007FD5
:1001AC00FAD0064A536843F002035360034B5B6872
:1001BC0003F00C03082BF9D1704700BF001002406C
:1001CC000000FFF800043800C368194009040161FD
:1001DC007047000010B4224B984218D0214B984223
:1001EC001BD0214B98421ED0204B984221D007297E
:1001FC0025D804688B000F21994024EA0101016085
:10020C00046802FA03F12143016010BC7047184CDA
:10021C00A36943F00403A361E0E7154CA36943F021
:10022C000803A361DDE7124CA36943F01003A3613B
:10023C00DAE70F4CA36943F02003A361D7E7083931
:10024C00C9B2436889004FF00F0C0CFA01FC23EA89
:10025C000C034360436802FA01F119434160D4E78F
:10026C0000080140000C0140001001400014014046
:10027C00001002401D4B1B68012283F82C20427B8E
:10028C00013A1B4B9A5C02F1804202F500320021CC
:10029C0011600268111D427B013A9A5C02F18042A6
:1002AC0002F5003291600169427B013A9A5C02F1DD
:1002BC00804202F50032D160427B013A9A5C02F135
:1002CC00804202F50032C1695160427B013A9A5C6E
:1002DC0002F1804202F50032136823F4FF4323F04D
:1002EC00700341680B431360704700BFB8000020D7
:1002FC00E4140008026A037B013B0549CB5C03F163
:10030C00804303F500335B68D21A4262704700BF2A
:10031C00E414000803681A6812F0100F0ED082B0B3
:10032C001B680193064B1B68002283F82C20019B51
:10033C0003685B680193019B02B07047704700BF74
:10034C00B800002002680023136002685360036841
:10035C0040F217129A60036842F21C02DA600268DB
:10036C00536943F0C00353617047000010B5044655
:10037C0002681D4B9A4222D022681C4B9A4224D010
:10038C0022681B4B9A4228D01A4B1868FFF7DAFFE9
:10039C00932363608323A360174A536943F00103DB
:1003AC005361164BC02183F81013402283F811239C
:1003BC004FF40030186083F826135A6010BD0E4AB3
:1003CC00936943F480439361D6E70A4B1C600A4A55
:1003DC00D36943F40033D361D2E7074AD36943F4BA
:1003EC008023D361D0E700BF0038014000440040B7
:1003FC0000480040B80000200010024000E100E07E
:10040C0038B50546104C092202212046FFF7E2FEC2
:10041C00092203212046FFF7DDFE0C4C0C4B236018
:10042C00062323730723637300236362E3610123B1
:10043C00637623764FF4FA732362A5622046FFF7A6
:10044C0095FF204638BD00BF000801408800002001
:10045C000044004008B590F82C30002BFBD1016112
:10046C00C261FFF707FF08BD08B5094B1B6813F005
:10047C00007F0CD0074B1B68002283F82C20044B08
:10048C004FF0E0625A60044B9B6A03B1984708BD79
:10049C0000000240B80000208800002008B5074B7F
:1004AC001B6813F4001F00D108BD044B4FF4E0028D
:1004BC005A60034B1868FFF71DFFF5E70000024078
:1004CC00B800002008B5024B1868FFF723FF08BDE1
:1004DC00B80000204FF0E02341F63F725A61074903
:1004EC00F02281F823200020986107221A611A69F2
:1004FC0022F004021A6181F82300704700ED00E03D
:10050C000C4BDA6942F0C052DA610B490A6842F4CA
:10051C0080720A605A6A42F001025A62054B5B6AA9
:10052C0013F0020FFAD0034A136A43F40243136226
:10053C00704700BF001002400070004010B5044628
:10054C00254AD36823F4E0631B041B0C43F00523FA
:10055C0043F47A03D360FFF7F3FDFFF7D1FF1F4B92
:10056C005B6813F0020F04D01C4A136843F00803B5
:10057C00136074B9194B1A6822F001021A601A68D8
:10058C0022F002021A60144A136923F00403136167
:10059C0010BD012C10D0022CFAD1104B1A6842F06D
:1005AC0001021A601A6842F002021A600A4A1369C0
:1005BC0043F004031361EBE7084B1A6842F00102A5
:1005CC001A601A6822F002021A60034A136943F097
:1005DC0004031361DCE700BF00ED00E00070004095
:1005EC0008B5054A136801331360044B1B680BB143
:1005FC001068984708BD00BFC4000020C000002050
:10060C00014B1860704700BFC000002082B0054B42
:10061C001B680193034B1B68019A9B1A8342F9D305
:10062C0002B07047C4000020064B1B6913F0010F89
:10063C0007D0044B6FF001021A61034A13680133AF
:10064C0013607047002C0140BC000020044A536921
:10065C0043F480235361034B01221A70704700BF8F
:10066C0000040140C80000201A4B5B6813F0020F15
:10067C001FD0194B01221A70164B5B6813F0200F18
:10068C00FAD0144B5A6842F010025A605A6822F0A1
:10069C0002025A6000229A61DA611A6201225A62DD
:1006AC005A6822F010025A600A4B5B6813F0200F54
:1006BC00FAD0084B5B6813F0010F09D0054B5B684F
:1006CC0013F0200FFAD0034A536823F00103536050
:1006DC00704700BF00280040C800002008B500F09B
:1006EC0017FA08BD08B500F085F908BD08B50A462B
:1006FC000146024B1868FFF7ADFE08BDCC00002088
:10070C00F0B585B00020FFF719FFFFF7E3FE3B487B
:10071C00FFF776FF3A48FFF773FE3A4B18603A4CF6
:10072C00062200212046FFF755FD01212046FFF748
:10073C004BFD364800F030F9002726E0344D354C9F
:10074C0005260096344B2A462146042000F088F9F1
:10075C000096324B2A462146042000F081F900967F
:10076C002F4B2A462146042000F07AF900962D4B97
:10077C002A462146042000F073F900962A4B2A469B
:10078C002146042000F06CF90137132FD6DD204DE3
:10079C00204C172302933823019340F60523009332
:1007AC00224B2A462146022000F05AF9204B019395
:1007BC00204B0093204B2A462146012000F050F993
:1007CC00002600961D4B2A462146052000F048F9CC
:1007DC0000961B4B2A462146062000F041F94FF4A7
:1007EC007A70FFF713FF174B2A462146032000F0BF
:1007FC0037F94FF47A70FFF709FFC8E7E9060008EC
:10080C00F1060008CC00002000080140F9060008A1
:10081C005453455434333231EC1400080815000895
:10082C00241500083C15000858150008741500081C
:10083C00C41500083416000898150008EC150008BB
:10084C00041600081C160008B0F800C043889C452C
:10085C0015D003441B790B704388C3EB0323094960
:10086C000B44136042880132074B83FB0213134481
:10087C00DB10C3EB0313D31A438000207047012015
:10088C00704700BF100200208988888830B5048822
:10089C00651C114B83FB05C32B44DB10C3EB03130B
:1008AC00EB1A5FFA83FE43889E4513D004442271F1
:1008BC00002309E0B0F800C0CD5CCCEB0C2C074C4D
:1008CC00A4440CF8035001339A42F3DCA0F800E086
:1008DC00002030BD0120FCE78988888810020020A8
:1008EC00DE2B00D9FEE7F0B50C469C46274B442185
:1008FC0019704C215970532199700125DD703526E2
:10090C001E71234E96F800E00EEB0507377083F846
:10091C0005E04FF0000E83F806E05FFA8CFC0CF15A
:10092C001C06DE71197254215972462199723121BB
:10093C00D9721849CE781E738E785E734E789E737A
:10094C000978D9730001284318745D74C4F30761E6
:10095C009974C4F30741D974C4F3072119755C75F4
:10096C00C2F307619975C2F30741D975C2F3072128
:10097C0019765A769D768222DA7683F81CE083F813
:10098C001DE083F81EC083F81FE0F0BDD4000020EA
:10099C00D00000200000002008B5104B1860104952
:1009AC000F230A460220FFF79BFF202306E0A3F14A
:1009BC0020020C49895C0C4AD15401332E2BF6D9F8
:1009CC00002304E0084AD15C084AD15401333B2B84
:1009DC00F8D9074B2F221A7008BD00BF1811002040
:1009EC0043544C443C160008D4000020D401002091
:1009FC00D100002000B583B000238DF807300093A0
:100A0C00114B1B7863B1104B00221A700F4B1B68F3
:100A1C001BB10F4A11780F48984703B05DF804FBDF
:100A2C006A460DF107010C48FFF70EFF40B9074B62
:100A3C001B68002BF1D09DF8071000989847ECE745
:100A4C00064B01221A70E8E71C1100201811002037
:100A5C00D1000020D401002004110020040000204B
:100A6C0008B42DE9F04185B006460F4690460BAA16
:100A7C0052F8041B0392214D05F1200000F0AEF852
:100A8C0084B22346424639463046FFF729FF04F12B
:100A9C0021039BB220330021E95404F1220292B2CB
:100AAC0002F12003E954D2B229461548FFF7EEFEB5
:100ABC0010B1144B01221A7000238DF80B300193E6
:100ACC00114B1B78DBB2012B04D005B0BDE8F04113
:100ADC0001B0704701AA0DF10B010948FFF7B4FEF4
:100AEC000028F2D1084B00221A70084B1B6823B166
:100AFC009DF80B1001989847E7E7FEE7D40000201B
:100B0C00041100201C1100200400002018110020EA
:100B1C0000EB80004000014B186070470000002083
:100B2C000B480C490C4A002302E0D458C45004333F
:100B3C00C4188C42F9D3094A094C002301E0136014
:100B4C000432A242FBD300F00FF8FFF7D9FD704737
:100B5C00000000206C000020881600086C000020AB
:100B6C0034110020FEE7000070B500260C4D0D4C32
:100B7C00641BA410A64209D100F0A2FC00260A4D69
:100B8C000A4C641BA410A64205D170BD55F8043B59
:100B9C0098470136EEE755F8043B98470136F2E7E3
:100BAC0080160008801600088016000884160008BD
:100BBC0000B59BB0009104916FF00041059102913A
:100BCC0005490391694600F06FF80022009B1A70EA
:100BDC001BB05DF804FB00BF0802FFFF13460A467A
:100BEC00014602480068FFF7E3BF00BF0800002081
:100BFC002DE9F0478E6882469E420C4690461F4671
:100C0C0038D88A8912F4906F32D02568096901337B
:100C1C00A5EB010965694B4405EB450505EBD5755D
:100C2C006D109D4238BF1D46530531D5294600F045
:100C3C006FFB064650B90C234FF0FF30CAF800305A
:100C4C00A38943F04003A381BDE8F0874A4621699C
:100C5C0000F0CEFAA38923F4906343F08003A381C0
:100C6C0026614E4426603E466561A5EB0905A560EC
:100C7C00BE4200D93E4632464146206800F0C6FAD4
:100C8C00A36800209B1BA360236833442360DBE72D
:100C9C002A4600F0B1FB06460028E1D150462169F6
:100CAC0000F0CEFAC7E700002DE9F04F98468B898B
:100CBC0007461B060D4614469DB00ED50B6963B94D
:100CCC00402100F025FB2860286120B90C233B60F3
:100CDC004FF0FF30D1E040236B61002309932023B8
:100CEC008DF8293030234FF00109CDF80C80DFF856
:100CFC00A4818DF82A3023469A4613F8012B0AB1A9
:100D0C00252AF9D1BAEB040B0BD05B4622462946B7
:100D1C003846FFF76DFF013000F0AA80099A5A445B
:100D2C0009929AF80030002B00F0A28000234FF0BB
:100D3C00FF32CDE905230AF1010A049307938DF8DC
:100D4C0053301A935446052214F8011B514800F0F5
:100D5C0041FA049AD8B9D00644BF20238DF85330F9
:100D6C00110744BF2B238DF853309AF800302A2BEF
:100D7C0015D0544600204FF00A0C079A214611F862
:100D8C00013B303B092B4ED9B0B1079214E0A0EBDC
:100D9C00080309FA03F31343A2460493D2E7039B17
:100DAC00191D1B680391002BBBBF5B4242F0020272
:100DBC0007930793B8BF049223782E2B0CD163783A
:100DCC002A2B35D1039B02341A1D1B680392002B6E
:100DDC00B8BF4FF0FF330593DFF8BCA00322504699
:100DEC00217800F0F7F940B14023A0EB0A0003FA98
:100DFC0000F0049B01340343049314F8011B0622F6
:100E0C0026488DF8281000F0E5F9002838D0244B3E
:100E1C001BBB039B073323F0070308330393099B86
:100E2C003344099367E70C4601200CFB0232A5E71B
:100E3C0000234FF00A0C194601340593204610F894
:100E4C00012B303A092A03D9002BC5D00591C3E7F1
:100E5C00044601230CFB0121F0E703AB00932A4667
:100E6C003846104B04A9AFF30080421C0646D6D17D
:100E7C00AB895B063FF52CAF09981DB0BDE8F08F30
:100E8C0003AB00932A463846064B04A900F07CF8C5
:100E9C00EBE700BF4B16000851160008551600086A
:100EAC0000000000FD0B00082DE9F047164699469E
:100EBC008A680B6907469342B8BF1346336091F8B2
:100ECC0043200C46DDF820800AB1013333602368DF
:100EDC00990642BF336802333360256815F0060566
:100EEC0006D104F1190AE36832689B1AAB4228DC7C
:100EFC0094F84320131E226818BF012392062DD4A8
:100F0C004946384604F14302C047013020D02368DB
:100F1C00E56803F00603042B18BF002532684FF078
:100F2C000006A36808BFAD1A226908BF25EAE5755B
:100F3C009342C4BF9B1AED181A34B5421AD1002043
:100F4C0008E00123524649463846C047013003D1D8
:100F5C004FF0FF30BDE8F0870135C4E73020E118D1
:100F6C0081F843005A1C94F845102244023382F84D
:100F7C004310C5E70123224649463846C047013095
:100F8C00E6D00136D9E700002DE9FF470F7E9146E8
:100F9C00782F80460C469A460C9D01F1430207D8E7
:100FAC00622F0AD8002F00F0D980582F00F0A480AF
:100FBC0004F1420584F842703AE0A7F16303152B63
:100FCC00F6D801A151F823F02D10000841100008AB
:100FDC00BD0F0008BD0F0008BD0F0008BD0F0008B5
:100FEC0041100008BD0F0008BD0F0008BD0F000820
:100FFC00BD0F00084F1100087110000831110008D6
:10100C00BD0F0008BD0F000871110008BD0F0008CE
:10101C0071100008BD0F0008BD0F00083911000841
:10102C002B681A1D1B682A6004F1420584F84230B3
:10103C000123A4E020682968060601F104030AD5FF
:10104C000E682B60002E03DA2D23764284F8433091
:10105C000A235E4819E00E6810F0400F2B6018BF91
:10106C0036B2EFE72B682068191D2960010601D5FF
:10107C001E6802E04606FBD51E886F2F0CBF0823A6
:10108C000A235248002184F843106568002DA8BF3C
:10109C002168A560A4BF21F0040121600EB9002DC8
:1010AC004DD01546B6FBF3F103FB1167C75D05F890
:1010BC00017D3746BB420E46F4D9082B0BD1236871
:1010CC00DE0708D5236961689942DEBF302305F835
:1010DC00013C05F1FF35521B22614B46214640462F
:1010EC00CDF800A003AAFFF7DFFE01304CD14FF082
:1010FC00FF3004B0BDE8F087344881F845702968AA
:10110C00236851F8046B29601D0614D5DF0744BF12
:10111C0043F0200323601EB9236823F020032360CF
:10112C001023AFE7236843F020032360782328487B
:10113C0084F84530E3E7590648BFB6B2E6E71546F2
:10114C00BBE72B682668181D6169286035061B688B
:10115C0001D5196002E07006FBD5198000231546F5
:10116C002361BAE72B6800211A1D2A601D6862688A
:10117C00284600F02FF808B1401B606063682361BB
:10118C00002384F84330A8E72A46494640462369A1
:10119C00D0470130ABD023689B0713D4E068039B86
:1011AC009842B8BF1846A4E7012332464946404648
:1011BC00D04701309BD00135E36803995B1AAB42F1
:1011CC00F2DCEBE7002504F11906F5E75C160008E4
:1011DC006D160008034610B5C9B202449342184676
:1011EC0001D1002003E0047801338C42F6D110BD0C
:1011FC000A44914200F1FF3300D1704710B511F849
:10120C00014B914203F8014FF9D110BD884210B542
:10121C0001EB020402D98442234607D8431EA142A3
:10122C0008D011F8012B03F8012FF8E7014602440E
:10123C008A4200D110BD13F8014D02F8014DF7E7B9
:10124C0038B50546002940D051F8043C0C1F002B42
:10125C00B8BFE41800F010F91C4A136833B9636086
:10126C0014602846BDE8384000F00CB9A34208D9F8
:10127C00206821188B4201BF19685B68091821602E
:10128C00EDE71A465B680BB1A342FAD91168501806
:10129C00A0420BD120680144501883421160E0D168
:1012AC0018685B68014411605360DAE702D90C23BB
:1012BC002B60D6E7206821188B4201BF19685B6848
:1012CC000918216063605460CBE738BD2011002001
:1012DC0070B50E4E0C463168054611B900F0BCF8DD
:1012EC0030602146284600F0B7F8431C0AD0C41CD5
:1012FC0024F00304A04207D0211A284600F0ACF8D1
:10130C00013001D14FF0FF34204670BD2411002074
:10131C002DE9F041CD1C25F0030508350C2D38BF07
:10132C000C25002D074601DBA94205D90C2300260C
:10133C003B603046BDE8F0812E4E00F09DF83368DE
:10134C001C4634BB29463846FFF7C2FF431C0446F3
:10135C004DD134682646002E40D12368314638469C
:10136C0004EB030800F078F880453AD12168033586
:10137C006D1A25F0030508350C2D38BF0C253846A1
:10138C002946FFF7A5FF01302BD023682B4423609F
:10139C000EE02268521B1ED40B2A16D96119A342E7
:1013AC00256018BF5960636808BF316062514B609B
:1013BC00384604F10B0600F065F826F00706231DED
:1013CC00F21AB6D09B1BA350B3E76268A3420CBFC2
:1013DC0032605A60ECE723466468B2E734467668BC
:1013EC00B9E70C2338463B6000F04CF8A1E72560C8
:1013FC00DEE700BF201100202DE9F04180461446A5
:10140C000E4621B91146BDE8F041FFF781BF2AB95C
:10141C00FFF716FF25462846BDE8F08100F038F8A6
:10142C008442074602D8B4EB500F12D821464046EE
:10143C00FFF76EFF05460028EDD0BC422246314630
:10144C0028BF3A46FFF7D4FE31464046FFF7F8FE78
:10145C00E1E73546DFE7000038B50023054D0446CB
:10146C0008462B6000F01EF8431C02D12B6803B118
:10147C00236038BD28110020014800F011B800BFCE
:10148C002C110020014800F00CB800BF2C110020DA
:10149C0051F8043C181F002BBCBF0B58C0187047E8
:1014AC0070477047044A05491368002B08BF0B4668
:1014BC001844106018467047301100203811002075
:1014CC00F8B500BFF8BC08BC9E467047F8B500BF25
:0814DC00F8BC08BC9E467047F5
:1014E400081C3044586C80004C6F672044726F7045
:1014F4002074657374696E6730203A29202025644E
:10150400000000004C6F672044726F702074657394
:1015140074696E6731203A29202025640000000098
:101524004C6F672044726F702074657374696E67C2
:10153400323A2920202564004C6F672044726F7072
:101544002074657374696E6733203A2920202564FA
:10155400000000004C6F672044726F702074657344
:1015640074696E6734203A29202025640000000045
:1015740048656C6C6F20444C5420416761696E204F
:10158400256420417267312025642041726732202E
:101594003A25640046554E3A257328292046494C7D
:1015A400453A25732829202047454E4552414C4C45
:1015B4005920444C5420416761696E310000000099
:1015C4006170706C69636174696F6E732F446C74BD
:1015D4004C6F674C696254657374732F5372632F35
:1015E4006D61696E2E630000416E6F74686572549C
:1015F40065737420444C5420416761696E00000097
:10160400416E6F74686572546573743220444C542F
:1016140020416761696E00004F72616E67652069E1
:1016240073207377656574206672756974000000B1
:101634004D61696E000000004C4F472044524F50EA
:1016440050454421212100232D302B2000686C4C6F
:1016540000656667454647003031323334353637E6
:10166400383941424344454600303132333435360B
:0C1674003738396162636465660000006D
:04168000310100082C
:041684000D0100084C
:10168800E8030000010000000C000020000000003A
:101698000000000000000000000000000000000042
:1016A8000000000000000000000000000000000032
:1016B8000000000000000000000000000000000022
:1016C8000000000000000000000000000000000012
:1016D8000000000000000000000000000000000002
:0C16E800000000000000000000000000F6
:0400000508000B2DB7
:00000001FF
